{
  "_format": "hh-sol-artifact-1",
  "contractName": "MyStorage",
  "sourceName": "contracts/MyStorage.sol",
  "abi": [
    {
      "inputs": [],
      "name": "get",
      "outputs": [
        {
          "internalType": "uint256",
          "name": "",
          "type": "uint256"
        }
      ],
      "stateMutability": "view",
      "type": "function"
    },
    {
      "inputs": [],
      "name": "getData",
      "outputs": [
        {
          "internalType": "uint256",
          "name": "",
          "type": "uint256"
        },
        {
          "internalType": "uint256",
          "name": "",
          "type": "uint256"
        },
        {
          "internalType": "uint256",
          "name": "",
          "type": "uint256"
        }
      ],
      "stateMutability": "view",
      "type": "function"
    },
    {
      "inputs": [
        {
          "internalType": "uint256",
          "name": "x",
          "type": "uint256"
        }
      ],
      "name": "set",
      "outputs": [],
      "stateMutability": "nonpayable",
      "type": "function"
    },
    {
      "inputs": [
        {
          "internalType": "uint256",
          "name": "dev_id",
          "type": "uint256"
        },
        {
          "internalType": "uint256",
          "name": "value",
          "type": "uint256"
        }
      ],
      "name": "setData",
      "outputs": [],
      "stateMutability": "nonpayable",
      "type": "function"
    },
    {
      "inputs": [
        {
          "internalType": "uint256[2]",
          "name": "a",
          "type": "uint256[2]"
        },
        {
          "internalType": "uint256[2][2]",
          "name": "b",
          "type": "uint256[2][2]"
        },
        {
          "internalType": "uint256[2]",
          "name": "c",
          "type": "uint256[2]"
        },
        {
          "internalType": "uint256[1]",
          "name": "input",
          "type": "uint256[1]"
        }
      ],
      "name": "verifyProof",
      "outputs": [
        {
          "internalType": "bool",
          "name": "r",
          "type": "bool"
        }
      ],
      "stateMutability": "view",
      "type": "function"
    }
  ],
  "bytecode": "0x608060405234801561001057600080fd5b50612451806100206000396000f3fe608060405234801561001057600080fd5b50600436106100575760003560e01c80633bc5de301461005c57806343753b4d1461007c5780634848b1a5146100ac57806360fe47b1146100c85780636d4ce63c146100e4575b600080fd5b610064610102565b60405161007393929190611fec565b60405180910390f35b61009660048036038101906100919190611d3c565b61011b565b6040516100a39190611ef6565b60405180910390f35b6100c660048036038101906100c19190611dca565b6105cf565b005b6100e260048036038101906100dd9190611da1565b6105e8565b005b6100ec6105f2565b6040516100f99190611fd1565b60405180910390f35b6000806000600154600254600354925092509250909192565b6000610125611a47565b60405180604001604052808760006002811061016a577f4e487b7100000000000000000000000000000000000000000000000000000000600052603260045260246000fd5b60200201518152602001876001600281106101ae577f4e487b7100000000000000000000000000000000000000000000000000000000600052603260045260246000fd5b60200201518152508160000181905250604051806040016040528060405180604001604052808860006002811061020e577f4e487b7100000000000000000000000000000000000000000000000000000000600052603260045260246000fd5b602002015160006002811061024c577f4e487b7100000000000000000000000000000000000000000000000000000000600052603260045260246000fd5b6020020151815260200188600060028110610290577f4e487b7100000000000000000000000000000000000000000000000000000000600052603260045260246000fd5b60200201516001600281106102ce577f4e487b7100000000000000000000000000000000000000000000000000000000600052603260045260246000fd5b60200201518152508152602001604051806040016040528088600160028110610320577f4e487b7100000000000000000000000000000000000000000000000000000000600052603260045260246000fd5b602002015160006002811061035e577f4e487b7100000000000000000000000000000000000000000000000000000000600052603260045260246000fd5b60200201518152602001886001600281106103a2577f4e487b7100000000000000000000000000000000000000000000000000000000600052603260045260246000fd5b60200201516001600281106103e0577f4e487b7100000000000000000000000000000000000000000000000000000000600052603260045260246000fd5b60200201518152508152508160200181905250604051806040016040528085600060028110610438577f4e487b7100000000000000000000000000000000000000000000000000000000600052603260045260246000fd5b602002015181526020018560016002811061047c577f4e487b7100000000000000000000000000000000000000000000000000000000600052603260045260246000fd5b602002015181525081604001819052506000600167ffffffffffffffff8111156104cf577f4e487b7100000000000000000000000000000000000000000000000000000000600052604160045260246000fd5b6040519080825280602002602001820160405280156104fd5781602001602082028036833780820191505090505b50905060005b60018110156105a257848160018110610545577f4e487b7100000000000000000000000000000000000000000000000000000000600052603260045260246000fd5b6020020151828281518110610583577f4e487b7100000000000000000000000000000000000000000000000000000000600052603260045260246000fd5b602002602001018181525050808061059a906121f6565b915050610503565b5060006105af82846105fb565b14156105c0576001925050506105c7565b6000925050505b949350505050565b8160018190555042600281905550806003819055505050565b8060008190555050565b60008054905090565b6000807f30644e72e131a029b85045b68181585d2833e84879b9709143e1f593f00000019050600061062b610886565b90508060800151516001865161064191906120cb565b14610681576040517f08c379a000000000000000000000000000000000000000000000000000000000815260040161067890611f11565b60405180910390fd5b60006040518060400160405280600081526020016000815250905060005b86518110156107e257838782815181106106e2577f4e487b7100000000000000000000000000000000000000000000000000000000600052603260045260246000fd5b60200260200101511061072a576040517f08c379a000000000000000000000000000000000000000000000000000000000815260040161072190611f51565b60405180910390fd5b6107cd826107c8856080015160018561074391906120cb565b8151811061077a577f4e487b7100000000000000000000000000000000000000000000000000000000600052603260045260246000fd5b60200260200101518a85815181106107bb577f4e487b7100000000000000000000000000000000000000000000000000000000600052603260045260246000fd5b6020026020010151610cfc565b610e4b565b915080806107da906121f6565b91505061069f565b50610832818360800151600081518110610825577f4e487b7100000000000000000000000000000000000000000000000000000000600052603260045260246000fd5b6020026020010151610e4b565b90506108686108448660000151610fe6565b8660200151846000015185602001518587604001518b60400151896060015161108b565b6108785760019350505050610880565b600093505050505b92915050565b61088e611a7a565b60405180604001604052807f0289270b3e3871564b11a32a05b9cdfcc4eb3ef5c2c3c3b56631757bcb0c9d2181526020017f07f404909606eb1b1e818f8a70cb5cc5fed6bfd5542d8482fd9f91ac5fb6534d8152508160000181905250604051806040016040528060405180604001604052807f272a37d0a87a52635fdf72e6a660661a4cece15f96b00d2fbbaf802ec87c766281526020017f1c6286caf36da487ba8b10c3191b10c572395f528f0a64e6c3b34759077c2260815250815260200160405180604001604052807f2f9568f065418688d1400db7a9570cc80483a939b9197cb22794e4e7388d959d81526020017f1c5e8abc06d5639535beaaa78ecb9d637d7223ea250e4f49ed803fb272521be88152508152508160200181905250604051806040016040528060405180604001604052807f198e9393920d483a7260bfb731fb5d25f1aa493335a9e71297e485b7aef312c281526020017f1800deef121f1e76426a00665e5c4479674322d4f75edadd46debd5cd992f6ed815250815260200160405180604001604052807f090689d0585ff075ec9e99ad690c3395bc4b313370b38ef355acdadcd122975b81526020017f12c85ea5db8c6deb4aab71808dcb408fe3d1e7690c43d37b4ce6cc0166fa7daa8152508152508160400181905250604051806040016040528060405180604001604052807f198e9393920d483a7260bfb731fb5d25f1aa493335a9e71297e485b7aef312c281526020017f1800deef121f1e76426a00665e5c4479674322d4f75edadd46debd5cd992f6ed815250815260200160405180604001604052807f090689d0585ff075ec9e99ad690c3395bc4b313370b38ef355acdadcd122975b81526020017f12c85ea5db8c6deb4aab71808dcb408fe3d1e7690c43d37b4ce6cc0166fa7daa8152508152508160600181905250600267ffffffffffffffff811115610b7b577f4e487b7100000000000000000000000000000000000000000000000000000000600052604160045260246000fd5b604051908082528060200260200182016040528015610bb457816020015b610ba1611ac1565b815260200190600190039081610b995790505b50816080018190525060405180604001604052807f1754ec3be8eb759343b532a6298dfc8d3d20e458f6d426d605653d1456b9cfc581526020017f187076e1e8eac03508bfee140a45d37da699a8444f466a96f0e343f566deea0f8152508160800151600081518110610c50577f4e487b7100000000000000000000000000000000000000000000000000000000600052603260045260246000fd5b602002602001018190525060405180604001604052807f1b5527fdda00fe534051cf293eb0108fba3d985ea0c4f747c49ed30dfe03c65c81526020017f276daf377d503cb2e067e6c77431f790640318511ac2881afea16594082b380d8152508160800151600181518110610cee577f4e487b7100000000000000000000000000000000000000000000000000000000600052603260045260246000fd5b602002602001018190525090565b610d04611ac1565b610d0c611adb565b836000015181600060038110610d4b577f4e487b7100000000000000000000000000000000000000000000000000000000600052603260045260246000fd5b602002018181525050836020015181600160038110610d93577f4e487b7100000000000000000000000000000000000000000000000000000000600052603260045260246000fd5b6020020181815250508281600260038110610dd7577f4e487b7100000000000000000000000000000000000000000000000000000000600052603260045260246000fd5b602002018181525050600060608360808460076107d05a03fa90508060008114610e0057610e02565bfe5b5080610e43576040517f08c379a0000000000000000000000000000000000000000000000000000000008152600401610e3a90611f31565b60405180910390fd5b505092915050565b610e53611ac1565b610e5b611afd565b836000015181600060048110610e9a577f4e487b7100000000000000000000000000000000000000000000000000000000600052603260045260246000fd5b602002018181525050836020015181600160048110610ee2577f4e487b7100000000000000000000000000000000000000000000000000000000600052603260045260246000fd5b602002018181525050826000015181600260048110610f2a577f4e487b7100000000000000000000000000000000000000000000000000000000600052603260045260246000fd5b602002018181525050826020015181600360048110610f72577f4e487b7100000000000000000000000000000000000000000000000000000000600052603260045260246000fd5b602002018181525050600060608360c08460066107d05a03fa90508060008114610f9b57610f9d565bfe5b5080610fde576040517f08c379a0000000000000000000000000000000000000000000000000000000008152600401610fd590611f91565b60405180910390fd5b505092915050565b610fee611ac1565b60007f30644e72e131a029b85045b68181585d97816a916871ca8d3c208c16d87cfd4790506000836000015114801561102b575060008360200151145b1561104f576040518060400160405280600081526020016000815250915050611086565b604051806040016040528084600001518152602001828560200151611074919061223f565b8361107f919061217b565b8152509150505b919050565b600080600467ffffffffffffffff8111156110cf577f4e487b7100000000000000000000000000000000000000000000000000000000600052604160045260246000fd5b60405190808252806020026020018201604052801561110857816020015b6110f5611ac1565b8152602001906001900390816110ed5790505b5090506000600467ffffffffffffffff81111561114e577f4e487b7100000000000000000000000000000000000000000000000000000000600052604160045260246000fd5b60405190808252806020026020018201604052801561118757816020015b611174611b1f565b81526020019060019003908161116c5790505b5090508a826000815181106111c5577f4e487b7100000000000000000000000000000000000000000000000000000000600052603260045260246000fd5b6020026020010181905250888260018151811061120b577f4e487b7100000000000000000000000000000000000000000000000000000000600052603260045260246000fd5b60200260200101819052508682600281518110611251577f4e487b7100000000000000000000000000000000000000000000000000000000600052603260045260246000fd5b60200260200101819052508482600381518110611297577f4e487b7100000000000000000000000000000000000000000000000000000000600052603260045260246000fd5b602002602001018190525089816000815181106112dd577f4e487b7100000000000000000000000000000000000000000000000000000000600052603260045260246000fd5b60200260200101819052508781600181518110611323577f4e487b7100000000000000000000000000000000000000000000000000000000600052603260045260246000fd5b60200260200101819052508581600281518110611369577f4e487b7100000000000000000000000000000000000000000000000000000000600052603260045260246000fd5b602002602001018190525083816003815181106113af577f4e487b7100000000000000000000000000000000000000000000000000000000600052603260045260246000fd5b60200260200101819052506113c482826113d4565b9250505098975050505050505050565b6000815183511461141a576040517f08c379a000000000000000000000000000000000000000000000000000000000815260040161141190611f71565b60405180910390fd5b600083519050600060068261142f9190612121565b905060008167ffffffffffffffff811115611473577f4e487b7100000000000000000000000000000000000000000000000000000000600052604160045260246000fd5b6040519080825280602002602001820160405280156114a15781602001602082028036833780820191505090505b50905060005b83811015611986578681815181106114e8577f4e487b7100000000000000000000000000000000000000000000000000000000600052603260045260246000fd5b6020026020010151600001518260006006846115049190612121565b61150e91906120cb565b81518110611545577f4e487b7100000000000000000000000000000000000000000000000000000000600052603260045260246000fd5b60200260200101818152505086818151811061158a577f4e487b7100000000000000000000000000000000000000000000000000000000600052603260045260246000fd5b6020026020010151602001518260016006846115a69190612121565b6115b091906120cb565b815181106115e7577f4e487b7100000000000000000000000000000000000000000000000000000000600052603260045260246000fd5b60200260200101818152505085818151811061162c577f4e487b7100000000000000000000000000000000000000000000000000000000600052603260045260246000fd5b602002602001015160000151600060028110611671577f4e487b7100000000000000000000000000000000000000000000000000000000600052603260045260246000fd5b60200201518260026006846116869190612121565b61169091906120cb565b815181106116c7577f4e487b7100000000000000000000000000000000000000000000000000000000600052603260045260246000fd5b60200260200101818152505085818151811061170c577f4e487b7100000000000000000000000000000000000000000000000000000000600052603260045260246000fd5b602002602001015160000151600160028110611751577f4e487b7100000000000000000000000000000000000000000000000000000000600052603260045260246000fd5b60200201518260036006846117669190612121565b61177091906120cb565b815181106117a7577f4e487b7100000000000000000000000000000000000000000000000000000000600052603260045260246000fd5b6020026020010181815250508581815181106117ec577f4e487b7100000000000000000000000000000000000000000000000000000000600052603260045260246000fd5b602002602001015160200151600060028110611831577f4e487b7100000000000000000000000000000000000000000000000000000000600052603260045260246000fd5b60200201518260046006846118469190612121565b61185091906120cb565b81518110611887577f4e487b7100000000000000000000000000000000000000000000000000000000600052603260045260246000fd5b6020026020010181815250508581815181106118cc577f4e487b7100000000000000000000000000000000000000000000000000000000600052603260045260246000fd5b602002602001015160200151600160028110611911577f4e487b7100000000000000000000000000000000000000000000000000000000600052603260045260246000fd5b60200201518260056006846119269190612121565b61193091906120cb565b81518110611967577f4e487b7100000000000000000000000000000000000000000000000000000000600052603260045260246000fd5b602002602001018181525050808061197e906121f6565b9150506114a7565b5061198f611b45565b6000602082602086026020860160086107d05a03fa905080600081146119b4576119b6565bfe5b50806119f7576040517f08c379a00000000000000000000000000000000000000000000000000000000081526004016119ee90611fb1565b60405180910390fd5b600082600060018110611a33577f4e487b7100000000000000000000000000000000000000000000000000000000600052603260045260246000fd5b602002015114159550505050505092915050565b6040518060600160405280611a5a611ac1565b8152602001611a67611b1f565b8152602001611a74611ac1565b81525090565b6040518060a00160405280611a8d611ac1565b8152602001611a9a611b1f565b8152602001611aa7611b1f565b8152602001611ab4611b1f565b8152602001606081525090565b604051806040016040528060008152602001600081525090565b6040518060600160405280600390602082028036833780820191505090505090565b6040518060800160405280600490602082028036833780820191505090505090565b6040518060400160405280611b32611b67565b8152602001611b3f611b67565b81525090565b6040518060200160405280600190602082028036833780820191505090505090565b6040518060400160405280600290602082028036833780820191505090505090565b6000611b9c611b9784612048565b612023565b90508082856040860282011115611bb257600080fd5b60005b85811015611be25781611bc88882611d00565b845260208401935060408301925050600181019050611bb5565b5050509392505050565b6000611bff611bfa8461206e565b612023565b90508082856020860282011115611c1557600080fd5b60005b85811015611c455781611c2b8882611d27565b845260208401935060208301925050600181019050611c18565b5050509392505050565b6000611c62611c5d84612094565b612023565b90508082856020860282011115611c7857600080fd5b60005b85811015611ca85781611c8e8882611d27565b845260208401935060208301925050600181019050611c7b565b5050509392505050565b600082601f830112611cc357600080fd5b6002611cd0848285611b89565b91505092915050565b600082601f830112611cea57600080fd5b6001611cf7848285611bec565b91505092915050565b600082601f830112611d1157600080fd5b6002611d1e848285611c4f565b91505092915050565b600081359050611d3681612404565b92915050565b6000806000806101208587031215611d5357600080fd5b6000611d6187828801611d00565b9450506040611d7287828801611cb2565b93505060c0611d8387828801611d00565b925050610100611d9587828801611cd9565b91505092959194509250565b600060208284031215611db357600080fd5b6000611dc184828501611d27565b91505092915050565b60008060408385031215611ddd57600080fd5b6000611deb85828601611d27565b9250506020611dfc85828601611d27565b9150509250929050565b611e0f816121af565b82525050565b6000611e226012836120ba565b9150611e2d8261230e565b602082019050919050565b6000611e456012836120ba565b9150611e5082612337565b602082019050919050565b6000611e68601f836120ba565b9150611e7382612360565b602082019050919050565b6000611e8b6016836120ba565b9150611e9682612389565b602082019050919050565b6000611eae6012836120ba565b9150611eb9826123b2565b602082019050919050565b6000611ed16015836120ba565b9150611edc826123db565b602082019050919050565b611ef0816121bb565b82525050565b6000602082019050611f0b6000830184611e06565b92915050565b60006020820190508181036000830152611f2a81611e15565b9050919050565b60006020820190508181036000830152611f4a81611e38565b9050919050565b60006020820190508181036000830152611f6a81611e5b565b9050919050565b60006020820190508181036000830152611f8a81611e7e565b9050919050565b60006020820190508181036000830152611faa81611ea1565b9050919050565b60006020820190508181036000830152611fca81611ec4565b9050919050565b6000602082019050611fe66000830184611ee7565b92915050565b60006060820190506120016000830186611ee7565b61200e6020830185611ee7565b61201b6040830184611ee7565b949350505050565b600061202d61203e565b905061203982826121c5565b919050565b6000604051905090565b600067ffffffffffffffff821115612063576120626122ce565b5b602082029050919050565b600067ffffffffffffffff821115612089576120886122ce565b5b602082029050919050565b600067ffffffffffffffff8211156120af576120ae6122ce565b5b602082029050919050565b600082825260208201905092915050565b60006120d6826121bb565b91506120e1836121bb565b9250827fffffffffffffffffffffffffffffffffffffffffffffffffffffffffffffffff0382111561211657612115612270565b5b828201905092915050565b600061212c826121bb565b9150612137836121bb565b9250817fffffffffffffffffffffffffffffffffffffffffffffffffffffffffffffffff04831182151516156121705761216f612270565b5b828202905092915050565b6000612186826121bb565b9150612191836121bb565b9250828210156121a4576121a3612270565b5b828203905092915050565b60008115159050919050565b6000819050919050565b6121ce826122fd565b810181811067ffffffffffffffff821117156121ed576121ec6122ce565b5b80604052505050565b6000612201826121bb565b91507fffffffffffffffffffffffffffffffffffffffffffffffffffffffffffffffff82141561223457612233612270565b5b600182019050919050565b600061224a826121bb565b9150612255836121bb565b9250826122655761226461229f565b5b828206905092915050565b7f4e487b7100000000000000000000000000000000000000000000000000000000600052601160045260246000fd5b7f4e487b7100000000000000000000000000000000000000000000000000000000600052601260045260246000fd5b7f4e487b7100000000000000000000000000000000000000000000000000000000600052604160045260246000fd5b6000601f19601f8301169050919050565b7f76657269666965722d6261642d696e7075740000000000000000000000000000600082015250565b7f70616972696e672d6d756c2d6661696c65640000000000000000000000000000600082015250565b7f76657269666965722d6774652d736e61726b2d7363616c61722d6669656c6400600082015250565b7f70616972696e672d6c656e677468732d6661696c656400000000000000000000600082015250565b7f70616972696e672d6164642d6661696c65640000000000000000000000000000600082015250565b7f70616972696e672d6f70636f64652d6661696c65640000000000000000000000600082015250565b61240d816121bb565b811461241857600080fd5b5056fea2646970667358221220cc7ea181901408e5b84febd11cc123f189ef01536e40fddac659dc129d54d69764736f6c63430008040033",
  "linkReferences": {},
  "deployedLinkReferences": {}
}