{
  "_format": "hh-sol-artifact-1",
  "contractName": "MyStorageV2",
  "sourceName": "contracts/MyStorageV2.sol",
  "abi": [
    {
      "inputs": [],
      "name": "get",
      "outputs": [
        {
          "internalType": "uint256",
          "name": "",
          "type": "uint256"
        }
      ],
      "stateMutability": "view",
      "type": "function"
    },
    {
      "inputs": [],
      "name": "getData",
      "outputs": [
        {
          "internalType": "uint256",
          "name": "",
          "type": "uint256"
        },
        {
          "internalType": "uint256",
          "name": "",
          "type": "uint256"
        },
        {
          "internalType": "uint256",
          "name": "",
          "type": "uint256"
        }
      ],
      "stateMutability": "view",
      "type": "function"
    },
    {
      "inputs": [
        {
          "internalType": "uint256",
          "name": "x",
          "type": "uint256"
        }
      ],
      "name": "set",
      "outputs": [],
      "stateMutability": "nonpayable",
      "type": "function"
    },
    {
      "inputs": [
        {
          "internalType": "uint256",
          "name": "dev_id",
          "type": "uint256"
        },
        {
          "internalType": "uint256",
          "name": "value",
          "type": "uint256"
        }
      ],
      "name": "setData",
      "outputs": [],
      "stateMutability": "nonpayable",
      "type": "function"
    },
    {
      "inputs": [
        {
          "internalType": "uint256[2]",
          "name": "a",
          "type": "uint256[2]"
        },
        {
          "internalType": "uint256[2][2]",
          "name": "b",
          "type": "uint256[2][2]"
        },
        {
          "internalType": "uint256[2]",
          "name": "c",
          "type": "uint256[2]"
        },
        {
          "internalType": "uint256[1]",
          "name": "input",
          "type": "uint256[1]"
        },
        {
          "internalType": "uint256",
          "name": "dev_id",
          "type": "uint256"
        },
        {
          "internalType": "uint256",
          "name": "value",
          "type": "uint256"
        }
      ],
      "name": "setDataV2",
      "outputs": [],
      "stateMutability": "nonpayable",
      "type": "function"
    },
    {
      "inputs": [
        {
          "internalType": "uint256[2]",
          "name": "a",
          "type": "uint256[2]"
        },
        {
          "internalType": "uint256[2][2]",
          "name": "b",
          "type": "uint256[2][2]"
        },
        {
          "internalType": "uint256[2]",
          "name": "c",
          "type": "uint256[2]"
        },
        {
          "internalType": "uint256[1]",
          "name": "input",
          "type": "uint256[1]"
        }
      ],
      "name": "verifyProof",
      "outputs": [
        {
          "internalType": "bool",
          "name": "r",
          "type": "bool"
        }
      ],
      "stateMutability": "view",
      "type": "function"
    }
  ],
  "bytecode": "0x608060405234801561001057600080fd5b50612534806100206000396000f3fe608060405234801561001057600080fd5b50600436106100625760003560e01c80633bc5de301461006757806343753b4d146100875780634848b1a5146100b757806360fe47b1146100d35780636d4ce63c146100ef578063b626bd341461010d575b600080fd5b61006f610129565b60405161007e939291906120cf565b60405180910390f35b6100a1600480360381019061009c9190611d92565b610142565b6040516100ae9190611fd9565b60405180910390f35b6100d160048036038101906100cc9190611ead565b6105f6565b005b6100ed60048036038101906100e89190611e84565b61060f565b005b6100f7610619565b60405161010491906120b4565b60405180910390f35b61012760048036038101906101229190611df7565b610622565b005b6000806000600154600254600354925092509250909192565b600061014c611a9d565b604051806040016040528087600060028110610191577f4e487b7100000000000000000000000000000000000000000000000000000000600052603260045260246000fd5b60200201518152602001876001600281106101d5577f4e487b7100000000000000000000000000000000000000000000000000000000600052603260045260246000fd5b602002015181525081600001819052506040518060400160405280604051806040016040528088600060028110610235577f4e487b7100000000000000000000000000000000000000000000000000000000600052603260045260246000fd5b6020020151600060028110610273577f4e487b7100000000000000000000000000000000000000000000000000000000600052603260045260246000fd5b60200201518152602001886000600281106102b7577f4e487b7100000000000000000000000000000000000000000000000000000000600052603260045260246000fd5b60200201516001600281106102f5577f4e487b7100000000000000000000000000000000000000000000000000000000600052603260045260246000fd5b60200201518152508152602001604051806040016040528088600160028110610347577f4e487b7100000000000000000000000000000000000000000000000000000000600052603260045260246000fd5b6020020151600060028110610385577f4e487b7100000000000000000000000000000000000000000000000000000000600052603260045260246000fd5b60200201518152602001886001600281106103c9577f4e487b7100000000000000000000000000000000000000000000000000000000600052603260045260246000fd5b6020020151600160028110610407577f4e487b7100000000000000000000000000000000000000000000000000000000600052603260045260246000fd5b6020020151815250815250816020018190525060405180604001604052808560006002811061045f577f4e487b7100000000000000000000000000000000000000000000000000000000600052603260045260246000fd5b60200201518152602001856001600281106104a3577f4e487b7100000000000000000000000000000000000000000000000000000000600052603260045260246000fd5b602002015181525081604001819052506000600167ffffffffffffffff8111156104f6577f4e487b7100000000000000000000000000000000000000000000000000000000600052604160045260246000fd5b6040519080825280602002602001820160405280156105245781602001602082028036833780820191505090505b50905060005b60018110156105c95784816001811061056c577f4e487b7100000000000000000000000000000000000000000000000000000000600052603260045260246000fd5b60200201518282815181106105aa577f4e487b7100000000000000000000000000000000000000000000000000000000600052603260045260246000fd5b60200260200101818152505080806105c1906122d9565b91505061052a565b5060006105d68284610651565b14156105e7576001925050506105ee565b6000925050505b949350505050565b8160018190555042600281905550806003819055505050565b8060008190555050565b60008054905090565b61062e86868686610142565b15610649578160018190555042600281905550806003819055505b505050505050565b6000807f30644e72e131a029b85045b68181585d2833e84879b9709143e1f593f0000001905060006106816108dc565b90508060800151516001865161069791906121ae565b146106d7576040517f08c379a00000000000000000000000000000000000000000000000000000000081526004016106ce90611ff4565b60405180910390fd5b60006040518060400160405280600081526020016000815250905060005b86518110156108385783878281518110610738577f4e487b7100000000000000000000000000000000000000000000000000000000600052603260045260246000fd5b602002602001015110610780576040517f08c379a000000000000000000000000000000000000000000000000000000000815260040161077790612034565b60405180910390fd5b6108238261081e856080015160018561079991906121ae565b815181106107d0577f4e487b7100000000000000000000000000000000000000000000000000000000600052603260045260246000fd5b60200260200101518a8581518110610811577f4e487b7100000000000000000000000000000000000000000000000000000000600052603260045260246000fd5b6020026020010151610d52565b610ea1565b91508080610830906122d9565b9150506106f5565b5061088881836080015160008151811061087b577f4e487b7100000000000000000000000000000000000000000000000000000000600052603260045260246000fd5b6020026020010151610ea1565b90506108be61089a866000015161103c565b8660200151846000015185602001518587604001518b6040015189606001516110e1565b6108ce57600193505050506108d6565b600093505050505b92915050565b6108e4611ad0565b60405180604001604052807f0289270b3e3871564b11a32a05b9cdfcc4eb3ef5c2c3c3b56631757bcb0c9d2181526020017f07f404909606eb1b1e818f8a70cb5cc5fed6bfd5542d8482fd9f91ac5fb6534d8152508160000181905250604051806040016040528060405180604001604052807f272a37d0a87a52635fdf72e6a660661a4cece15f96b00d2fbbaf802ec87c766281526020017f1c6286caf36da487ba8b10c3191b10c572395f528f0a64e6c3b34759077c2260815250815260200160405180604001604052807f2f9568f065418688d1400db7a9570cc80483a939b9197cb22794e4e7388d959d81526020017f1c5e8abc06d5639535beaaa78ecb9d637d7223ea250e4f49ed803fb272521be88152508152508160200181905250604051806040016040528060405180604001604052807f198e9393920d483a7260bfb731fb5d25f1aa493335a9e71297e485b7aef312c281526020017f1800deef121f1e76426a00665e5c4479674322d4f75edadd46debd5cd992f6ed815250815260200160405180604001604052807f090689d0585ff075ec9e99ad690c3395bc4b313370b38ef355acdadcd122975b81526020017f12c85ea5db8c6deb4aab71808dcb408fe3d1e7690c43d37b4ce6cc0166fa7daa8152508152508160400181905250604051806040016040528060405180604001604052807f198e9393920d483a7260bfb731fb5d25f1aa493335a9e71297e485b7aef312c281526020017f1800deef121f1e76426a00665e5c4479674322d4f75edadd46debd5cd992f6ed815250815260200160405180604001604052807f090689d0585ff075ec9e99ad690c3395bc4b313370b38ef355acdadcd122975b81526020017f12c85ea5db8c6deb4aab71808dcb408fe3d1e7690c43d37b4ce6cc0166fa7daa8152508152508160600181905250600267ffffffffffffffff811115610bd1577f4e487b7100000000000000000000000000000000000000000000000000000000600052604160045260246000fd5b604051908082528060200260200182016040528015610c0a57816020015b610bf7611b17565b815260200190600190039081610bef5790505b50816080018190525060405180604001604052807f1754ec3be8eb759343b532a6298dfc8d3d20e458f6d426d605653d1456b9cfc581526020017f187076e1e8eac03508bfee140a45d37da699a8444f466a96f0e343f566deea0f8152508160800151600081518110610ca6577f4e487b7100000000000000000000000000000000000000000000000000000000600052603260045260246000fd5b602002602001018190525060405180604001604052807f1b5527fdda00fe534051cf293eb0108fba3d985ea0c4f747c49ed30dfe03c65c81526020017f276daf377d503cb2e067e6c77431f790640318511ac2881afea16594082b380d8152508160800151600181518110610d44577f4e487b7100000000000000000000000000000000000000000000000000000000600052603260045260246000fd5b602002602001018190525090565b610d5a611b17565b610d62611b31565b836000015181600060038110610da1577f4e487b7100000000000000000000000000000000000000000000000000000000600052603260045260246000fd5b602002018181525050836020015181600160038110610de9577f4e487b7100000000000000000000000000000000000000000000000000000000600052603260045260246000fd5b6020020181815250508281600260038110610e2d577f4e487b7100000000000000000000000000000000000000000000000000000000600052603260045260246000fd5b602002018181525050600060608360808460076107d05a03fa90508060008114610e5657610e58565bfe5b5080610e99576040517f08c379a0000000000000000000000000000000000000000000000000000000008152600401610e9090612014565b60405180910390fd5b505092915050565b610ea9611b17565b610eb1611b53565b836000015181600060048110610ef0577f4e487b7100000000000000000000000000000000000000000000000000000000600052603260045260246000fd5b602002018181525050836020015181600160048110610f38577f4e487b7100000000000000000000000000000000000000000000000000000000600052603260045260246000fd5b602002018181525050826000015181600260048110610f80577f4e487b7100000000000000000000000000000000000000000000000000000000600052603260045260246000fd5b602002018181525050826020015181600360048110610fc8577f4e487b7100000000000000000000000000000000000000000000000000000000600052603260045260246000fd5b602002018181525050600060608360c08460066107d05a03fa90508060008114610ff157610ff3565bfe5b5080611034576040517f08c379a000000000000000000000000000000000000000000000000000000000815260040161102b90612074565b60405180910390fd5b505092915050565b611044611b17565b60007f30644e72e131a029b85045b68181585d97816a916871ca8d3c208c16d87cfd47905060008360000151148015611081575060008360200151145b156110a55760405180604001604052806000815260200160008152509150506110dc565b6040518060400160405280846000015181526020018285602001516110ca9190612322565b836110d5919061225e565b8152509150505b919050565b600080600467ffffffffffffffff811115611125577f4e487b7100000000000000000000000000000000000000000000000000000000600052604160045260246000fd5b60405190808252806020026020018201604052801561115e57816020015b61114b611b17565b8152602001906001900390816111435790505b5090506000600467ffffffffffffffff8111156111a4577f4e487b7100000000000000000000000000000000000000000000000000000000600052604160045260246000fd5b6040519080825280602002602001820160405280156111dd57816020015b6111ca611b75565b8152602001906001900390816111c25790505b5090508a8260008151811061121b577f4e487b7100000000000000000000000000000000000000000000000000000000600052603260045260246000fd5b60200260200101819052508882600181518110611261577f4e487b7100000000000000000000000000000000000000000000000000000000600052603260045260246000fd5b602002602001018190525086826002815181106112a7577f4e487b7100000000000000000000000000000000000000000000000000000000600052603260045260246000fd5b602002602001018190525084826003815181106112ed577f4e487b7100000000000000000000000000000000000000000000000000000000600052603260045260246000fd5b60200260200101819052508981600081518110611333577f4e487b7100000000000000000000000000000000000000000000000000000000600052603260045260246000fd5b60200260200101819052508781600181518110611379577f4e487b7100000000000000000000000000000000000000000000000000000000600052603260045260246000fd5b602002602001018190525085816002815181106113bf577f4e487b7100000000000000000000000000000000000000000000000000000000600052603260045260246000fd5b60200260200101819052508381600381518110611405577f4e487b7100000000000000000000000000000000000000000000000000000000600052603260045260246000fd5b602002602001018190525061141a828261142a565b9250505098975050505050505050565b60008151835114611470576040517f08c379a000000000000000000000000000000000000000000000000000000000815260040161146790612054565b60405180910390fd5b60008351905060006006826114859190612204565b905060008167ffffffffffffffff8111156114c9577f4e487b7100000000000000000000000000000000000000000000000000000000600052604160045260246000fd5b6040519080825280602002602001820160405280156114f75781602001602082028036833780820191505090505b50905060005b838110156119dc5786818151811061153e577f4e487b7100000000000000000000000000000000000000000000000000000000600052603260045260246000fd5b60200260200101516000015182600060068461155a9190612204565b61156491906121ae565b8151811061159b577f4e487b7100000000000000000000000000000000000000000000000000000000600052603260045260246000fd5b6020026020010181815250508681815181106115e0577f4e487b7100000000000000000000000000000000000000000000000000000000600052603260045260246000fd5b6020026020010151602001518260016006846115fc9190612204565b61160691906121ae565b8151811061163d577f4e487b7100000000000000000000000000000000000000000000000000000000600052603260045260246000fd5b602002602001018181525050858181518110611682577f4e487b7100000000000000000000000000000000000000000000000000000000600052603260045260246000fd5b6020026020010151600001516000600281106116c7577f4e487b7100000000000000000000000000000000000000000000000000000000600052603260045260246000fd5b60200201518260026006846116dc9190612204565b6116e691906121ae565b8151811061171d577f4e487b7100000000000000000000000000000000000000000000000000000000600052603260045260246000fd5b602002602001018181525050858181518110611762577f4e487b7100000000000000000000000000000000000000000000000000000000600052603260045260246000fd5b6020026020010151600001516001600281106117a7577f4e487b7100000000000000000000000000000000000000000000000000000000600052603260045260246000fd5b60200201518260036006846117bc9190612204565b6117c691906121ae565b815181106117fd577f4e487b7100000000000000000000000000000000000000000000000000000000600052603260045260246000fd5b602002602001018181525050858181518110611842577f4e487b7100000000000000000000000000000000000000000000000000000000600052603260045260246000fd5b602002602001015160200151600060028110611887577f4e487b7100000000000000000000000000000000000000000000000000000000600052603260045260246000fd5b602002015182600460068461189c9190612204565b6118a691906121ae565b815181106118dd577f4e487b7100000000000000000000000000000000000000000000000000000000600052603260045260246000fd5b602002602001018181525050858181518110611922577f4e487b7100000000000000000000000000000000000000000000000000000000600052603260045260246000fd5b602002602001015160200151600160028110611967577f4e487b7100000000000000000000000000000000000000000000000000000000600052603260045260246000fd5b602002015182600560068461197c9190612204565b61198691906121ae565b815181106119bd577f4e487b7100000000000000000000000000000000000000000000000000000000600052603260045260246000fd5b60200260200101818152505080806119d4906122d9565b9150506114fd565b506119e5611b9b565b6000602082602086026020860160086107d05a03fa90508060008114611a0a57611a0c565bfe5b5080611a4d576040517f08c379a0000000000000000000000000000000000000000000000000000000008152600401611a4490612094565b60405180910390fd5b600082600060018110611a89577f4e487b7100000000000000000000000000000000000000000000000000000000600052603260045260246000fd5b602002015114159550505050505092915050565b6040518060600160405280611ab0611b17565b8152602001611abd611b75565b8152602001611aca611b17565b81525090565b6040518060a00160405280611ae3611b17565b8152602001611af0611b75565b8152602001611afd611b75565b8152602001611b0a611b75565b8152602001606081525090565b604051806040016040528060008152602001600081525090565b6040518060600160405280600390602082028036833780820191505090505090565b6040518060800160405280600490602082028036833780820191505090505090565b6040518060400160405280611b88611bbd565b8152602001611b95611bbd565b81525090565b6040518060200160405280600190602082028036833780820191505090505090565b6040518060400160405280600290602082028036833780820191505090505090565b6000611bf2611bed8461212b565b612106565b90508082856040860282011115611c0857600080fd5b60005b85811015611c385781611c1e8882611d56565b845260208401935060408301925050600181019050611c0b565b5050509392505050565b6000611c55611c5084612151565b612106565b90508082856020860282011115611c6b57600080fd5b60005b85811015611c9b5781611c818882611d7d565b845260208401935060208301925050600181019050611c6e565b5050509392505050565b6000611cb8611cb384612177565b612106565b90508082856020860282011115611cce57600080fd5b60005b85811015611cfe5781611ce48882611d7d565b845260208401935060208301925050600181019050611cd1565b5050509392505050565b600082601f830112611d1957600080fd5b6002611d26848285611bdf565b91505092915050565b600082601f830112611d4057600080fd5b6001611d4d848285611c42565b91505092915050565b600082601f830112611d6757600080fd5b6002611d74848285611ca5565b91505092915050565b600081359050611d8c816124e7565b92915050565b6000806000806101208587031215611da957600080fd5b6000611db787828801611d56565b9450506040611dc887828801611d08565b93505060c0611dd987828801611d56565b925050610100611deb87828801611d2f565b91505092959194509250565b6000806000806000806101608789031215611e1157600080fd5b6000611e1f89828a01611d56565b9650506040611e3089828a01611d08565b95505060c0611e4189828a01611d56565b945050610100611e5389828a01611d2f565b935050610120611e6589828a01611d7d565b925050610140611e7789828a01611d7d565b9150509295509295509295565b600060208284031215611e9657600080fd5b6000611ea484828501611d7d565b91505092915050565b60008060408385031215611ec057600080fd5b6000611ece85828601611d7d565b9250506020611edf85828601611d7d565b9150509250929050565b611ef281612292565b82525050565b6000611f0560128361219d565b9150611f10826123f1565b602082019050919050565b6000611f2860128361219d565b9150611f338261241a565b602082019050919050565b6000611f4b601f8361219d565b9150611f5682612443565b602082019050919050565b6000611f6e60168361219d565b9150611f798261246c565b602082019050919050565b6000611f9160128361219d565b9150611f9c82612495565b602082019050919050565b6000611fb460158361219d565b9150611fbf826124be565b602082019050919050565b611fd38161229e565b82525050565b6000602082019050611fee6000830184611ee9565b92915050565b6000602082019050818103600083015261200d81611ef8565b9050919050565b6000602082019050818103600083015261202d81611f1b565b9050919050565b6000602082019050818103600083015261204d81611f3e565b9050919050565b6000602082019050818103600083015261206d81611f61565b9050919050565b6000602082019050818103600083015261208d81611f84565b9050919050565b600060208201905081810360008301526120ad81611fa7565b9050919050565b60006020820190506120c96000830184611fca565b92915050565b60006060820190506120e46000830186611fca565b6120f16020830185611fca565b6120fe6040830184611fca565b949350505050565b6000612110612121565b905061211c82826122a8565b919050565b6000604051905090565b600067ffffffffffffffff821115612146576121456123b1565b5b602082029050919050565b600067ffffffffffffffff82111561216c5761216b6123b1565b5b602082029050919050565b600067ffffffffffffffff821115612192576121916123b1565b5b602082029050919050565b600082825260208201905092915050565b60006121b98261229e565b91506121c48361229e565b9250827fffffffffffffffffffffffffffffffffffffffffffffffffffffffffffffffff038211156121f9576121f8612353565b5b828201905092915050565b600061220f8261229e565b915061221a8361229e565b9250817fffffffffffffffffffffffffffffffffffffffffffffffffffffffffffffffff048311821515161561225357612252612353565b5b828202905092915050565b60006122698261229e565b91506122748361229e565b92508282101561228757612286612353565b5b828203905092915050565b60008115159050919050565b6000819050919050565b6122b1826123e0565b810181811067ffffffffffffffff821117156122d0576122cf6123b1565b5b80604052505050565b60006122e48261229e565b91507fffffffffffffffffffffffffffffffffffffffffffffffffffffffffffffffff82141561231757612316612353565b5b600182019050919050565b600061232d8261229e565b91506123388361229e565b92508261234857612347612382565b5b828206905092915050565b7f4e487b7100000000000000000000000000000000000000000000000000000000600052601160045260246000fd5b7f4e487b7100000000000000000000000000000000000000000000000000000000600052601260045260246000fd5b7f4e487b7100000000000000000000000000000000000000000000000000000000600052604160045260246000fd5b6000601f19601f8301169050919050565b7f76657269666965722d6261642d696e7075740000000000000000000000000000600082015250565b7f70616972696e672d6d756c2d6661696c65640000000000000000000000000000600082015250565b7f76657269666965722d6774652d736e61726b2d7363616c61722d6669656c6400600082015250565b7f70616972696e672d6c656e677468732d6661696c656400000000000000000000600082015250565b7f70616972696e672d6164642d6661696c65640000000000000000000000000000600082015250565b7f70616972696e672d6f70636f64652d6661696c65640000000000000000000000600082015250565b6124f08161229e565b81146124fb57600080fd5b5056fea2646970667358221220b8957aada63b2522c795da02dcc1fc8c7fb214e57ca7f367dd3059f0a997b3e664736f6c63430008040033",
  "linkReferences": {},
  "deployedLinkReferences": {}
}